:020000040800F2
:10000000780E002001010008812D00085D2A0008FB
:100010007D2D0008B50300085539000800000000D8
:10002000000000000000000000000000253800086B
:1000300025080008000000007D2F0008293800086E
:100040001B0100081B0100081B0100081B01000820
:100050001B0100081B0100081B0100081B01000810
:100060001B0100081B0100081B0100081B01000800
:100070001B0100081B0100081B0100081B010008F0
:100080001B0100081B0100081B0100081B010008E0
:100090001B0100081B0100081B0100081B010008D0
:1000A0001B0100081B0100081B0100081B010008C0
:1000B0001B0100081B0100081B0100081B010008B0
:1000C0001B0100081B0100081B0100081B010008A0
:1000D0001B0100083D390008493900081B010008D0
:1000E0001B0100081B0100081B010008DFF80CD0F1
:1000F00000F04EF900480047F5390008780E00205E
:100100000648804706480047FEE7FEE7FEE7FEE7B1
:10011000FEE7FEE7FEE7FEE7FEE7FEE72D38000814
:10012000ED00000840EA01039B0703D009E008C97D
:10013000121F08C0042AFAD203E011F8013B00F8AC
:10014000013B521EF9D27047D2B201E000F8012BF8
:10015000491EFBD270470022F6E710B513460A4647
:1001600004461946FFF7F0FF204610BD80EA010261
:1001700010B502F00043400022D04A001FD0010E0B
:1001800001EB1261C0F35600C2F3560240F40000C6
:1001900042F40002A0FB022000047F39140400D0C6
:1001A000401C50EA124001D44000491EC2B20C0665
:1001B00004EBD010401C4008802A02D003E000204D
:1001C00010BD20F00100002900DA0020184310BD06
:1001D00030B480EA010202F0004530F0004221F024
:1001E000004013D090B1C30DD40DC2F31601C0F37B
:1001F0001600E41A41F4000140F400027D349142FB
:1002000001D3641C00E04900002C02DA30BC00205D
:1002100070474FF400000023914201D3891A034331
:1002200040084FEA4101F7D151B1914202D14FF05C
:10023000004105E002D24FF0010101E06FF0010141
:1002400003EBC450284430BC00F06AB8002801DB3E
:10025000C0F10040002901DBC1F10041814201D819
:100260000120704700207047002801DBC0F10040EA
:10027000002901DBC1F10041814201D20120704718
:1002800000207047002801DBC0F10040002901DB9D
:10029000C1F10041814201D901207047002070471F
:1002A000002801DBC0F10040002901DBC1F1004161
:1002B000814201D10120704700207047962300221F
:1002C000114600F036B800F0004220F00040C10DA9
:1002D000C0F3160040F400007F2901DA00207047C7
:1002E000962903DCC1F19601C84001E096398840A7
:1002F000002AF4D04042704720F00040C10DC0F306
:10030000160040F400007F2901DA0020704796298A
:1003100003DCC1F19601C8407047963988407047A8
:100320000029A8BF7047401C490008BF20F0010009
:10033000704710B4B0FA80FC00FA0CF050EA0104E7
:1003400004BF10BC704749B1CCF1200421FA04F479
:1003500011FA0CF118BF012121430843A3EB0C0152
:10036000CB1D4FEA00614FEA102042BF002010BCB5
:10037000704700EBC35010440029A4BF10BC704765
:10038000401C490008BF20F0010010BC704700006D
:10039000064C074D06E0E06840F0010394E80700D2
:1003A00098471034AC42F6D3FFF7A4FED03B0008C8
:1003B000F03B0008FEE7000070B582B08E79C97985
:1003C00004460846FFF77AFF0021C4F2C821FFF770
:1003D000FFFE05460020012E8DF8070008D09EB9CB
:1003E00040F23000C2F2000002F0BCFD0FE000BF9E
:1003F00040F23006C2F20006304602F0A7FD304659
:10040000294602F0F7FC02E002208DF8070028469A
:100410004FF07E51FFF71AFF002804BF01208DF82E
:10042000070040F23000C2F2000002F0ABFC2946A7
:10043000FFF736FF002804BF03208DF80700E67B96
:100440000DF10702204622210123009603F0ACF8AB
:1004500002B070BDF0B583B0044640F23000C2F285
:10046000000002F08FFC054640F21800C2F20000C6
:1004700003F072FA0027C4F2C82706462846394618
:10048000FFF774FEFFF71FFF054630463946FFF7BA
:100490006DFEFFF718FF8DF80A00000AE77B8DF864
:1004A0000B0002AA2046212104238DF808508DF864
:1004B0000950009703F078F803B0F0BDB0B5B2B0C2
:1004C00004468879002101288DF8441018D80125A8
:1004D0008DF8455000F048F801A800F0C3F8002856
:1004E00018BF8DF844509DF80800BDF809108DF82C
:1004F000460011A8ADF8471005307621FFF72BFE16
:10050000E57B11AA204623218423009503F04CF8B3
:1005100032B0B0BDF0B591B08F7904460026012FFE
:100520004FF000050FD1C87909898DF8080001A89E
:10053000ADF8091000F0A4F8054620B99DF80800B0
:10054000A07200F011F88DF80570E77B01AA204633
:10055000242104238DF80450ADF80660009703F0C1
:1005600023F811B0F0BD0000B0B547F60041C0F669
:100570000001D1F800E047F60441C0F600010B6825
:1005800047F60841C0F60001086847F60C41C0F67E
:1005900000010A6847F61041C0F600010C6847F6F2
:1005A0001441C0F600010D6840F26841C2F200013A
:1005B00001F1080735C747F61840C1E900E3C0F666
:1005C000000047F6204347F62445D0F800E047F600
:1005D0001C42C0F60003C0F6000547F62C4447F65F
:1005E0002840C0F600021B682D68C0F60004C0F663
:1005F0000000126824680068C1E9083547F63C43EA
:1006000047F63845C1E90A04C1E906E2C0F600032D
:10061000C0F6000547F6304047F634421B682D68A7
:10062000C0F60000C0F6000245F2AA5C006812683D
:10063000C1E90E530B68C5F2AA5C63454A630863BF
:1006400008BFB0BD40F2011088800A20C1F800C088
:100650008871C81D3921FFF77EFDBDE8B04000F06C
:1006600033B80000002804BF0120704740F2684101
:10067000C2F200018A8882808979817100207047E6
:1006800080B550B1017941B14279012A05D880790C
:10069000A0F1650313F1640F02D2012080BD00BFF9
:1006A00040F2684C45F2AA53C2F2000CC5F2AA53BC
:1006B000CCF800308CF804108CF805208CF806007B
:1006C00000F002F8002080BDB0B586B047F60044C7
:1006D000C0F6000400F088FA002002900120059086
:1006E00002A801A9049400F0A7F918B100F01CFABF
:1006F00006B0B0BD40F26845C2F200052A6802208B
:100700002146002300F01AFA0028EFD16A68211D63
:100710000220002300F012FA0028E7D1AA6804F1B1
:1007200008010220002300F009FA0028DED1EA685F
:1007300004F10C010220002300F000FA0028D5D1BA
:100740002A6904F110010220002300F0F7F90028C3
:10075000CCD16A6904F114010220002300F0EEF903
:100760000028C3D1AA6904F118010220002300F077
:10077000E5F90028BAD1EA6904F11C01022000233E
:1007800000F0DCF90028B1D12A6A04F1200102202E
:10079000002300F0D3F90028A8D16A6A04F12401EB
:1007A0000220002300F0CAF900289FD1AA6A04F1B0
:1007B00028010220002300F0C1F9002896D1EA6A3E
:1007C00004F12C010220002300F0B8F900288DD19B
:1007D0002A6B04F130010220002300F0AFF9002859
:1007E0007FF484AF6A6B04F134010220002300F02F
:1007F000A5F900287FF47AAFAA6B04F13801022032
:10080000002300F09BF900287FF470AFEA6B04F13D
:100810003C010220002300F091F900F085F906B0B8
:10082000B0BD000070470000EFF3108072B600BF4B
:10083000FEE7000070B542F20C060446C4F2020660
:1008400000F006FB3168C90718D13068800644BF44
:10085000202030603068C00607D43069C00704D15A
:10086000306840075CBF002070BD3068C00623D4EC
:100870000020316849072BD434E000BF002C47D05A
:100880000546601C0ED13068C007DED03068C00756
:100890001CBF30685FEAC070D7D03068C007F2D1A3
:1008A000D3E700BF00F0D4FA401BA04230D8306834
:1008B000C007F7D1C9E700BF40F65020C2F20000E0
:1008C000C16941F00201C16110203168490709D5B1
:1008D00040F65021C2F20001CA6940F0040042F023
:1008E0000102CA613169C90702D13060012070BDBF
:1008F00040F65021C2F20001CA6942F00402CA6106
:10090000316921F0010131613060012070BD00BF0B
:10091000032070BD014690F82100022816D1086816
:10092000D1E90FC3026822F00E020260026822F0D1
:1009300001020260012000FA03F2CCF8042081F8E1
:1009400021000020002281F82020704704208863C5
:100950000120002281F820207047000080B590F827
:100960002110022924D10268116821F00E011160C2
:100970002F211368C4F202018A4240F20401C4F23A
:10098000020123F00103136016DD3023C4F20203D9
:100990009A421DD04423C4F202039A421CD0582329
:1009A000C4F202039A421DD14FF4803322E000BF0B
:1009B00004218163012080BD0823C4F202039A420E
:1009C0000ED01C23C4F202039A420BD1102311E073
:1009D0004FF480730EE000BF4FF480530AE000BF75
:1009E000012307E001F1680C4FF08073624508BFF6
:1009F0004FF480130B60012180F82110426B00211D
:100A000080F820100AB190470021084680BD000000
:100A1000B0B5044600F01CFA054640F20000C2F2F0
:100A200000000078611C18BF044400BF00F010FAF9
:100A3000401BA042FAD3B0BD2DE9F04381B040F68F
:100A40005026C2F20006327E012A03D1022001B0F4
:100A5000BDE8F083054601202C6830764CF250301A
:100A60008846FFF7E7FE022C1CD100284ED100205B
:100A700042F21004F061C4F20204206840F0040065
:100A80002060206840F0400020604CF25030FFF7BA
:100A9000D1FE216821F0040121600021317601B0EE
:100AA000BDE8F08390BB4FF0FF30C8F80000D5E9F7
:100AB000027007EB8020874228D242F21004C4F271
:100AC00002044FF0000900BFC6F81C90206840F0F7
:100AD000020020606760206840F0400020604CF217
:100AE0005030FFF7A7FE216821F00201216098B97C
:100AF000D5E9020107F5806700EB81208742E3D347
:100B000000200021317601B0BDE8F08301200021F2
:100B1000317601B0BDE8F083C8F80070002131766D
:100B200001B0BDE8F083000042F21001C4F20201FE
:100B3000086840F0800200200A6070472DE9F04FFD
:100B400081B040F65029C2F20009924699F8182067
:100B5000012A03D1022001B0BDE8F08F80460120B8
:100B600089F818004CF250309B460E46FFF762FEA3
:100B7000A0BB404642F21007B8F1020F18BF042094
:100B8000C4F20207B8F1010F08BF404645424FF0DA
:100B900000080024C4F12001C9F81C802AFA04F0DE
:100BA0000BFA01F13A680843B4F1200158BF2BFA5F
:100BB00001F042F00101396026F8020B4CF250308E
:100BC000FFF738FE3968013521F0010248F10001D4
:100BD0003A6018B9002904F11004DBD0002189F82B
:100BE000181001B0BDE8F08F42F20400C4F2020018
:100BF000C16809065CBF0020704740F22311C4F2AF
:100C00006751016048F6AB11CCF6EF510160C06846
:100C1000C0B2C009704700002DE9F04F82B00E68E5
:100C2000002E00F0038141F20042C4F201020423CD
:100C300040F2004E904208BF03234FF6FF7CC4F2FF
:100C4000010E009300240123C1F2100C4FF0000AA2
:100C50004FF0000949E000BF012704F00C030F2208
:100C60009A402BEA020207FA03F34FEA9A051A4365
:100C700046F82520D1F804B040F20C455FEACB22BB
:100C8000DEF8082054BF22EA080242EA0802C4F251
:100C90000105CEF808202A685FEA8B2354BF22EAB8
:100CA000080242EA08022A605FEA8B33DEF8042079
:100CB00054BF22EA080242EA08025FEACB33CEF8C8
:100CC0000420DEF800204FF0010354BF22EA08029E
:100CD00042EA0802CEF800200E680AF1010A36FA4C
:100CE0000AF204F1040400F0A18003FA0AF816EAFB
:100CF000080FF1D04E68664512DC122E56D8DFE898
:100D000006F0350B454955555555555555555555CD
:100D10005555554D510000BFD1F80C9046E000BF2D
:100D20004FF6FF72C1F2210296420FDC0022C1F29F
:100D3000110296421AD00022C1F21202964215D038
:100D40000022C1F22102964210D02FE00022C1F20F
:100D5000220296420AD00022C1F23102964205D008
:100D60000022C1F23202964220D100BF8A684AB105
:100D7000012A14BFC0F81480C0F810804FF0080991
:100D800014E000BF4FF0040910E000BFCA6802F190
:100D900008090BE04FF0000908E000BFCA6802F143
:100DA000040903E0CA6802F10C0900BF22460646A6
:100DB000BAF1080F24BF203A043637680F25954052
:100DC00027EA050509FA02F22A433260CA79D206F7
:100DD0007FF582AF41F21803C4F202031A68AEF540
:100DE0007E7642F001021A601A6802F00102019256
:100DF000019A2AF0030256F802B040F60002C4F24B
:100E00000102904210D040F60042C4F2010290422A
:100E10003FF422AF41F20002C4F20102009F90426F
:100E200008BF022719E700BF002716E702B0BDE898
:100E3000F08F0000C26802EA0103914341EA0341D6
:100E400001617047002A08BF090401617047000072
:100E500040F67020C2F200000068704740F20000C7
:100E600040F67021C2F20000C2F2000100780A6868
:100E7000104408607047000080B542F20000C4F2E0
:100E80000200016841F010010160032000F08EF8BB
:100E90000F2000F005F800F027F8002080BD0000CA
:100EA00070B540F20006C2F2000640F20801327846
:100EB000C2F200014FF47A730968B3FBF2F2044600
:100EC000B1FBF2F1084600F063FB0F2C4FF0010577
:100ED00008D838B94FF0FF3021460022002500F035
:100EE00039F87460284670BD82B041F21800C4F22F
:100EF00002000168022241F001010160016801F075
:100F0000010101910199416841F0805141604068BF
:100F100000F08050009000980420C4F201000168A5
:100F200062F31A61016002B070470000002848BFF8
:100F30007047C1B200F01F00012202FA00F04EF229
:100F40000012CEF2000242EAD10121F00301086052
:100F50007047000010B54EF60C5CCEF2000CDCF8C9
:100F60000030C3F3022E8EF00704042C28BF0424A3
:100F7000BEF103034FF0FF3E0EFA04F438BF002326
:100F8000A14399400EFA03F39A43114300F00F0274
:100F900000F160430901043A03F564436244002808
:100FA00048BF02F10C03197010BD00004EF60C5141
:100FB000CEF200010A684FF6FF031A4060F30A22DE
:100FC00042F0806040F0FD70086070472DE9F0430A
:100FD00081B0002800F0858042F20008C4F20208C7
:100FE0000446D8F800000D4600F0070088420CD2F5
:100FF000D8F8000020F007002843C8F80000D8F80F
:10100000000000F00700A8426BD1206841F20409FB
:101010008107C4F2020917D5410705D5D9F8001098
:1010200041F4E061C9F80010010705D5D9F80010B6
:1010300041F46051C9F80010D9F80010A26821F0FD
:10104000F0011143C9F80010C00741D1D8F80000E1
:1010500000F00700A8420CD9D8F8000020F00700E3
:101060002843C8F80000D8F8000000F00700A842A4
:1010700037D12068410707D5D9F80010E26821F47C
:10108000E0611143C9F80010000708D5D9F8000045
:10109000216920F4605040EAC100C9F80000D9F885
:1010A000002002F00C00082841F20020C0F27A0073
:1010B00050D143F6C033C2F38341C0F60003595CFC
:1010C000D2033BD440F60010C0F23D00484341E05B
:1010D000606802280AD001282AD159F8041C890323
:1010E00008D4012001B0BDE8F08300BF59F8041C0A
:1010F0008901F6D5D9F8001021F003010843C9F899
:101100000000FFF7A5FE064641F28837D9F8000037
:10111000616800F00C00B0EB810F97D0FFF798FEEC
:10112000801BB842F2D9032001B0BDE8F08300BFB4
:1011300059F8041C8907D4D5DCE700BFD9F8002092
:1011400043F6BE33C2F34042C0F600039A5C484304
:10115000B0FBF2F0D9F8001043F6A632C1F3031148
:10116000C0F60002515C40F2080220FA01F140F2A0
:101170000400C2F200000068C2F200021160FFF732
:101180008FFE002001B0BDE8F083000040F20800AF
:1011900041F20401C2F20000C4F2020100680968D1
:1011A00043F6B632C1F30221C0F60002515CC840DA
:1011B0007047000040F2080041F20401C2F2000052
:1011C000C4F202010068096843F6B632C1F3C221D5
:1011D000C0F60002515CC840704700002DE9F041A4
:1011E00082B0002868D00446007841F20006C007AB
:1011F000C4F2020625D0706800F00C0004281BD051
:10120000706800F00C00082802D17068C00313D485
:101210006068002800F06881B0F5A02F00F07C81A4
:10122000B0F5803F00F07C81306820F48030306081
:10123000306820F4802076E13068800301D5606852
:10124000D0B32078800718D5706810F00C0F07D045
:10125000706800F00C0008286ED17068C0036BD471
:101260003068800702D52069012825D1306861697E
:1012700020F0F80040EAC1003060207800071FD459
:101280002078400732D4E56995B1706800F00C0011
:10129000082840F08F80012D0ED07068216A00F47C
:1012A00080328A4208D1616A00F47010884203D10A
:1012B000002002B0BDE8F081012002B0BDE8F0815D
:1012C000A069002862D00020C4F242200121C0F8A9
:1012D0008014FFF7BDFD0546706A800700F18C8021
:1012E000FFF7B6FD401B0228F6D92AE1F06910F09D
:1012F000805808D1F06940F08050F061F06900F04A
:1013000080500090009847F20007C4F20007386848
:10131000C00529D4386840F480703860FFF798FD24
:10132000054600BF3868C0051ED4FFF791FD401B7D
:101330006428F7D905E100BF2069002840F20000C9
:10134000C4F2422000F0828001210160FFF780FD9D
:10135000054600BF306880073FF588AFFFF778FD8E
:10136000401B0228F6D9ECE0E068002800F08080FD
:10137000052800F09780012800F09880306A20F05E
:1013800001003062306A20F0040092E00020C4F2D4
:1013900042200021C0F88014FFF75AFD054600BF27
:1013A000706A80077FF56CAFFFF752FD401B022883
:1013B000F6D9C6E00027C4F2422700203866FFF7BE
:1013C00047FD022D05460BD13068800140F1BE80FB
:1013D000FFF73EFD401B02284FF00300F4D968E7F9
:1013E000306880017FF564AFFFF732FD401B0228B3
:1013F0004FF00300F4D95CE740F20800C2F20000AD
:10140000006844F6D351C1F26201A0FB0101480A11
:10141000019000BF00BF0198411E002801913FF4D8
:101420002FAF00BF0198411E002801913FF428AF63
:1014300000BF0198411E002801913FF421AF00BF79
:101440000198411E00280191E4D119E700210160B3
:10145000FFF7FEFC054600BF306880077FF50DAF43
:10146000FFF7F6FC401B02284FF00300F4D920E7F9
:10147000306A20F001003062306A20F004003062EF
:10148000FFF7E6FC054641F2883700BF306A800767
:1014900020D5FFF7DDFC401BB8424FF00300F5D923
:1014A00007E700BF306A40F004003062306A40F065
:1014B00001003062FFF7CCFC054641F2883700BFDF
:1014C000306A800706D4FFF7C3FC401BB842F7D947
:1014D00037E000BFB8F1000F7FF4D5AEF06920F01F
:1014E0008050F061CFE600BF306820F4803030607B
:1014F000306820F480203060FFF7AAFC054600BF6A
:10150000306880037FF59DAEFFF7A2FC401B642886
:101510004FF00300F4D9CCE6306840F4802030600E
:10152000306840F480303060FFF792FC054600BF21
:10153000306880033FF585AEFFF78AFC401B6428C6
:10154000F6D9032002B0BDE8F08100BF206AB0F5F3
:10155000803F05D17168A26821F4003111437160A8
:101560007168626A21F474111143084370600120AC
:101570003866FFF76DFC0446306880013FF598AE91
:10158000FFF766FC001B02284FF00300F4D990E639
:10159000411E0020B0EB116F1CBF012070474EF2BE
:1015A0001002CEF2000251604EF62351CEF200013D
:1015B000F0230B700721906011607047B0B590F870
:1015C0003C20012A04BF0220B0BD01F108053CCD3A
:1015D000D1E900CE23F47C5322F470521A432EF446
:1015E000F0431A432CF4E0431A4324F4C0431A4353
:1015F0002A43C96922F480420368114359640021D7
:1016000080F83C100846B0BD10B590F83C20012A87
:101610004FF0020233D080F83D200268D2F804E097
:10162000D2F808C00C682EF07003234340F2FF7418
:10163000C4F20004A24253600ADCB2F1804F13D01E
:1016400040F20043C4F200039A420DD011E000BF03
:1016500042F60043C4F201039A4205D040F600036B
:10166000C4F200039A4204D149682CF08003194364
:1016700091600121002280F83D1080F83C20104646
:1016800010BD0000002804BF0120704710B50446BB
:1016900090F83D0028B9002084F83C00204600F076
:1016A00067F8022084F83D00206840F2FF7302686A
:1016B000C4F2000342F6004C9842C4F2010C15DC5F
:1016C000B0F1804F1AD040F20041C4F200018842CC
:1016D00014D0984218DCB0F1804F1DD040F2004188
:1016E000C4F20001884217D01AE000BF604505D05F
:1016F00040F60001C4F200018842EAD1A16822F05C
:1017000070020A439842E6DD604505D040F60001CC
:10171000C4F20001884203D1216922F440720A43D5
:10172000A36922F08001D4F804E0E268194360451F
:101730000160C262C0F828E002D16169CCF83010C3
:1017400001214161002084F8461084F83E1084F89D
:101750003F1084F8401084F8411084F8421084F857
:10176000431084F8441084F8451084F83D1010BDEF
:1017700082B00068B0F1804F14D042F60041C4F24C
:10178000010188421BD141F21800C4F20200016835
:1017900041F400610160006800F40060019001986C
:1017A00002B0704741F21800C4F20200416841F0F3
:1017B00001014160406800F001000090009802B013
:1017C0007047000080B590F83C20012A4FF00202DB
:1017D00000F0C28080F83D20D0F800C04FF677724C
:1017E000DCF8083023EA0202CCF808200B684F2B03
:1017F00028DC1F2B44DD202B45D0302B43D0402B41
:1018000040F0AC80D1F804E0C968DCF82030DCF8A6
:10181000202022F00102CCF82020DCF8182022F051
:10182000F00242EA011123F00A0242EA0E02CCF869
:101830001810CCF82020DCF8081041F0470121F006
:10184000300180E06F2B27DDB3F5005F48D0B3F5A2
:10185000805F7AD0702B40F08180D1E901E3C968C4
:10186000DCF8082043EA0E0322F47F4243EA012118
:101870001143CCF80810DCF8081041F0770162E061
:101880000BB1102B6AD1DCF8081021F0700119435C
:1018900041F0070157E000BF502B35D0602B5DD1E0
:1018A000D1F804E0C968DCF82030DCF8202022F010
:1018B0001002CCF82020DCF8182022F4704242EA12
:1018C000013123F0A00242EA0E12CCF81810CCF835
:1018D0002020DCF8081041F0670121F0100132E00F
:1018E000D1E901E3C968DCF8082043EA0E0322F4D9
:1018F0007F4243EA01211143CCF80810DCF80810BC
:1019000041F480411FE000BFD1F804E0C968DCF871
:101910002030DCF8202022F00102CCF82020DCF876
:10192000182022F0F00242EA011123F00A0242EAF2
:101930000E02CCF81810CCF82020DCF8081041F08A
:10194000570121F02001CCF808100022012180F875
:101950003D10002180F83C10104680BD0122F5E7C3
:101960002DE9F04390F83C30012B04BF0220BDE884
:10197000F0834FEAB202032A3CD8DFE802F00343C7
:1019800081BD00BF036842F600461D6A1A6AC4F2B0
:10199000010622F001021A621A465C6852F818CF5A
:1019A000B3428E68D1F800E025F0020545EA06054D
:1019B0000CD1CE68D1E9057824F4407425F00C05EB
:1019C00026F004063C43354344EA08042CF0730730
:1019D00047EA0E075C609F614F6809695F631D629B
:1019E0009F6947F008079F619F6927F004079F617F
:1019F000B2E000BF0121002280F83C200846BDE88B
:101A0000F08300BF036842F600461D6A1A6AC4F2FA
:101A1000010622F010021A621A46D3F804C052F8E6
:101A2000184FB3428E68D1F800E025F0200545EA52
:101A3000061510D1CE68D1E9058725F0C0096FF0F1
:101A4000400505EA06152CF4406647EA080745EA12
:101A5000090546EA870C24F4E64444EA0E27C3F855
:101A600004C09F614F6809699F631D629F6947F4C5
:101A700000679F619F6927F480679F616BE000BFEB
:101A8000036842F600461D6A1A6AC4F2010622F48F
:101A900080721A621A46D3F804C052F81CEFB3429F
:101AA0008E680C6825F4007545EA062511D1CE68CC
:101AB000D1E9058725F44069360240F2FF4526EA60
:101AC00005052CF4405647EA080745EA090546EAA9
:101AD000071C2EF073072743C3F804C0DF614F686B
:101AE0000969DF631D62DF6947F00807DF61DF69AD
:101AF00027F00407DF612FE0036842F60047D3F8C0
:101B000020C01A6AC4F2010722F480521A621A46EF
:101B10005C6852F81C5FD1F800E08E68BB4204D1CB
:101B20004F6924F4804444EA87142CF4005747EAB0
:101B3000063725F4E64646EA0E265C60DE614E680E
:101B400009691E641F62DF6947F40067DF61DF69AE
:101B500027F48067DF6109021368194311600021CF
:101B6000002280F83C200846BDE8F083002804BF2E
:101B70000120704710B5044690F83D0028B90020B8
:101B800084F83C00204600F067F8022084F83D000D
:101B9000206840F2FF730268C4F2000342F6004C72
:101BA0009842C4F2010C15DCB0F1804F1AD040F21B
:101BB0000041C4F20001884214D0984218DCB0F110
:101BC000804F1DD040F20041C4F20001884217D07E
:101BD0001AE000BF604505D040F60001C4F20001E4
:101BE0008842EAD1A16822F070020A439842E6DDF9
:101BF000604505D040F60001C4F20001884203D1DF
:101C0000216922F440720A43A36922F08001D4F8CA
:101C100004E0E268194360450160C262C0F828E050
:101C200002D16169CCF8301001214161002084F8B3
:101C3000461084F83E1084F83F1084F8401084F871
:101C4000411084F8421084F8431084F8441084F85A
:101C5000451084F83D1010BD7047000041B10829BF
:101C600010D0042914BF00F1410200F13F020BE043
:101C700090F83E20012A1CBF01207047022280F804
:101C80003E2013E000F140021278012A1CBF01201F
:101C900070470222082907D0042914BF80F8412088
:101CA00080F83F2002E000BF80F84020006801F08B
:101CB0001F010122036A8A4023EA02010162036ACA
:101CC00042F64441C4F201011A43A1F1440398428F
:101CD00002620FD040F2FF71C4F20001884213DCAF
:101CE000B0F1804F1CD040F20041C4F200018842A4
:101CF00016D01CE00A6842F400420A6040F2FF710C
:101D0000C4F200018842EBDD42F60041C4F2010159
:101D1000884205D040F60001C4F20001884206D195
:101D2000816801F00701062904BF0020704701689F
:101D300041F00101016000207047000080B5026899
:101D400001F01F0C012303FA0CFE136A42F6444C07
:101D500023EA0E03C4F2010C1362D2F820E0ACF1C6
:101D600044039A42C2F820E013D15CF824EC41F21B
:101D700011131EEA030F0CD1D2F820E040F24443C5
:101D80001EEA030F05D1DCF8003023F40043CCF841
:101D90000030D2F820C041F211131CEA030F06D123
:101DA000D2F820C040F244431CEA030F14D00829A3
:101DB00018D004290AD000294FF0010114BF80F87F
:101DC000411080F83E10002080BD00BF012180F846
:101DD0003F10002080BD00BF136823F00103136093
:101DE0000829E6D1012180F84010002080BD0000C4
:101DF0007047000070470000B0B582B0044600682C
:101E00000168C368426901F02F05202D03F0200509
:101E100006D12DB1204602B0BDE8B04001F00EBDA4
:101E20005FEA017C1EBF02F0010E03F4907212EB18
:101E30000E0253D1226B012A05D111F0100218BFF6
:101E400013F0100236D10A0622D513F080021FD0FB
:101E500094F8411021293FD1A168B1F5805F03D1E9
:101E60002169002900F07082216A4A1C22620978E7
:101E70004160E18C01390A04E1842DD1C16821F06F
:101E80008001C160C16841F04001C16002B0B0BDD5
:101E9000490621D513F040011ED0C16821F0400150
:101EA000C1602021204684F8411002B0BDE8B04056
:101EB00000F0D2BD002101910168019141680191BA
:101EC00001994069400613D4A08DE18DE28D002A6E
:101ED00018BF884240F0BA8102B0B0BDCA0718BF2F
:101EE00013F4807240F0B6804A0700F1B980BEE07A
:101EF000E06B016849688AB2002AEDD0A38D9A424E
:101F0000EAD2E1858069202800F09C80206850E8B2
:101F1000030F216820F4807041E80302DAB12068E1
:101F200050E8030F216820F4807041E8030292B169
:101F3000206850E8030F216820F4807041E8030214
:101F40004AB1206850E8030F216820F4807041E80E
:101F50000302002ADAD1206850E8050F216820F03A
:101F6000010041E80502DAB1206850E8050F216858
:101F700020F0010041E8050292B1206850E8050F09
:101F8000216820F0010041E805024AB1206850E8CC
:101F9000050F216820F0010041E80502002ADAD18E
:101FA000206850E8050F216820F0400041E8050254
:101FB000DAB1206850E8050F216820F0400041E8C0
:101FC000050292B1206850E8050F216820F040001A
:101FD00041E805024AB1206850E8050F216820F069
:101FE000400041E80502002ADAD1202084F84200AE
:101FF00000202063206850E8030F216820F01000C3
:1020000041E80302DAB1206850E8030F216820F0AC
:10201000100041E8030292B1206850E8030F2168E4
:1020200020F0100041E803024AB1206850E8030F95
:10203000216820F0100041E80302002ADAD1E06BA9
:10204000FEF768FC02206063A08DE18D401A81B22A
:10205000204674E1626C42F0010262644A0706D5D0
:10206000BEF1000F03D0626C42F0020262648A0784
:1020700006D5BEF1000F03D0626C42F00402626428
:10208000BCF1000F09D545EA0E02B2FA82F25209FC
:1020900003D1626C42F008026264626C002A3FF471
:1020A0001BAF11F0200118BF002D03D0204601F016
:1020B000C5FB20684069616C00F0400001F0080138
:1020C000401800F0B58000BF206850E8030F216879
:1020D00020F4907041E80302BAB3206850E8030F7F
:1020E000216820F4907041E8030272B3206850E840
:1020F000030F216820F4907041E803022AB320689E
:1021000050E8030F216820F4907041E80302002A90
:10211000DAD11AE0206850E8050F216820F00100AC
:1021200041E80502DAB1206850E8050F216820F087
:10213000010041E8050292B1206850E8050F2168CE
:1021400020F0010041E805024AB1206850E8050F7F
:10215000216820F0010041E80502002ADAD1206B55
:10216000012824D1206850E8030F216820F01000D6
:1021700041E80302DAB1206850E8030F216820F03B
:10218000100041E8030292B1206850E8030F216873
:1021900020F0100041E803024AB1206850E8030F24
:1021A000216820F0100041E80302002ADAD1202043
:1021B00084F84200002020632068406940063FD533
:1021C000206850E8050F216820F0400041E8050232
:1021D000DAB1206850E8050F216820F0400041E89E
:1021E000050292B1206850E8050F216820F04000F8
:1021F00041E805024AB1206850E8050F216820F047
:10220000400041E80502002ADAD1E06BC0B143F694
:102210003101C0F600014163FEF7A0FB00283FF446
:102220005BAEE06B416B02B0BDE8B040084700BF59
:102230002046FFF7DFFD0020606402B0B0BD00BFA4
:10224000204602B0BDE8B040FFF7D4BD401A216877
:1022500051E8031F226821F4907142E80313DBB1B7
:10226000216851E8031F226821F4907142E80313AA
:1022700093B1216851E8031F226821F4907142E86C
:1022800003134BB1216851E8031F226821F49071B8
:1022900042E80313002BDAD1216851E8051F2268B8
:1022A00021F0010142E80513DBB1216851E8051F67
:1022B000226821F0010142E8051393B1216851E839
:1022C000051F226821F0010142E805134BB1216886
:1022D00051E8051F226821F0010142E80513002B97
:1022E000DAD1202184F8421000212163216851E8CD
:1022F000031F226821F0100142E80313DBB12168BB
:1023000051E8031F226821F0100142E8031393B142
:10231000216851E8031F226821F0100142E80313ED
:102320004BB1216851E8031F226821F0100142E8F7
:102330000313002BDAD1022281B22046626302B07D
:10234000BDE8B040FFF754BD216A31F8022B6FF3AE
:102350005F22426021628CE5002804BF01207047A3
:1023600010B5044690F8410028B9002084F84000D8
:10237000204600F063F8242084F841002068D4E966
:102380000212C36823F40053C360036923F440536B
:102390001A430261D4E904231143C268194341F28C
:1023A0000C639A431143C1604169A26921F44071F1
:1023B000114343F60002C4F201029042416103D08E
:1023C000FEF7E4FE02E000BFFEF7F4FE62681921AA
:1023D00048439100B0FBF1F048F21F51C5F2EB11F8
:1023E000A0FB01235A094FF69C73C0F6FF7302FB52
:1023F0000300322303EB0010A0FB0101F02303EAEA
:102400005113206803EB0212C1F3431111448160A0
:10241000016921F490410161416921F02A01416182
:10242000C16841F40051C16000202021606484F83B
:10243000411084F84210606310BD000070B586B092
:10244000006844F20041C4F200010026884205966B
:10245000CDE90366029647D044F60001C4F20001BC
:10246000884279D043F60001C4F20101884240F06D
:10247000A58041F21800C4F20200016840F6000491
:1024800041F4804101600168C4F2010401F480411B
:1024900001910199016802AD41F0040101600068F9
:1024A000294600F00400019001984FF4007002905A
:1024B00002200390032005902046FEF7ADFB4FF469
:1024C000806002900020CDE9030020462946FEF7F7
:1024D000A3FB252000210022FEF73CFD2520FEF76E
:1024E00025FD06B070BD00BF41F21800C4F2020025
:1024F000416840F6000441F4003141604168C4F293
:10250000010401F4003101910199016802AD41F02B
:10251000040101600068294600F004000190019860
:102520000420029002200390032005902046FEF72D
:1025300073FB0820CDE90206204629460496FEF7E3
:102540006BFB262000210022FEF704FD2620FEF76B
:10255000EDFC06B070BD00BF41F21800C4F20200ED
:10256000416802AD41F480214160416801F480215D
:1025700001910199016841F0080101600068294654
:1025800000F00800019001984FF480600290022052
:1025900003900320059040F60000C4F2010000F50E
:1025A00080642046FEF738FB4FF400600290002064
:1025B000CDE9030020462946FEF72EFB06B070BD8C
:1025C0002DE9F04381B0044690F84200202827D13D
:1025D000884600294FF0010000F0C7801746002A06
:1025E00000F0C380002022211D46606484F8421060
:1025F0002063FEF72DFCA785E785A1680746B1F5A6
:10260000805F03D12069002800F0A68046464FF085
:102610000008E08D002800F0A48005F1010910E019
:10262000022001B0BDE8F083406800266FF35F2010
:1026300028F8020BE08D0138E085E08D002800F0DD
:1026400090802068016889060ED4B9F1000F19D076
:1026500055B300BFFEF7FCFBC01BA84224D820687E
:1026600001688906F6D500BF002EDDD0A168B1F55E
:10267000805F15D009B9216991B1406800F07F00F1
:102680000FE000BF01688906EED4016889065CBFCF
:1026900001685FEA8161E7D401688906F2D5E3E762
:1026A000406806F8010BC5E7206850E8030F216871
:1026B00020F4D07041E80302E2B1206850E8030F33
:1026C000216820F4D07041E803029AB1206850E8F4
:1026D000030F216820F4D07041E8030252B1206852
:1026E00050E8030F216820F4D07041E80302002A6B
:1026F000DAD100BF206850E8050F216820F0010002
:1027000041E80502DAB1206850E8050F216820F0A1
:10271000010041E8050292B1206850E8050F2168E8
:1027200020F0010041E805024AB1206850E8050F99
:10273000216820F0010041E80502002ADAD12020BA
:1027400084F8410084F84200002084F8400003200F
:1027500001B0BDE8F08300BF0026E08D00287FF4C3
:102760005CAF202084F84200002001B0BDE8F08377
:1027700090F84230202B1CBF0220704700294FF0F8
:10278000010318BF002A01D11846704700230363D4
:10279000816222218285C285436480F842100169EA
:1027A000006819B1C16841F48071C16041690023BA
:1027B00041F001014161C16841F02001C16018464A
:1027C00070470000006843F60001C4F2010188422E
:1027D00018BF704740F2A840C2F2000000F072BF7C
:1027E0002DE9F04381B0044690F84100202840F0E4
:1027F000B180884600294FF0010000F0D6801646CF
:10280000002A00F0D2800020606421201D4684F858
:102810004100FEF71DFBA684E684A1680646B1F5DB
:10282000805F03D12069002800F0988047464FF070
:102830000008E18C2068002900F0968005F101096C
:102840000BE000BF47B317F8011B4160E18C013971
:10285000E184E18C002900F0878001680906F1D449
:10286000B9F1000F0AD0EDB1FEF7F2FA801BA842D1
:1028700018D8206801680906F6D5E3E7016809065B
:10288000E0D4016809065CBF01685FEA0161D9D440
:1028900001680906F2D5D5E738F8021B00276FF367
:1028A0005F21D2E7206850E8030F216820F4D07040
:1028B00041E80302BAB3206850E8030F216820F40E
:1028C000D07041E8030272B3206850E8030F21681A
:1028D00020F4D07041E803022AB3206850E8030FC7
:1028E000216820F4D07041E80302002ADAD11AE00E
:1028F000206850E8050F216820F0010041E805023A
:10290000DAB1206850E8050F216820F0010041E8A5
:10291000050292B1206850E8050F216820F00100FF
:1029200041E805024AB1206850E8050F216820F00F
:10293000010041E80502002ADAD1202084F8410094
:1029400084F84200002084F84000032001B0BDE874
:10295000F08300BF022001B0BDE8F0830027E18CC6
:10296000206800297FF46AAF0168490619D4FDB1D7
:10297000691C0DD10168490613D4016849065CBF82
:1029800001685FEA41610CD401684906F2D508E0AC
:10299000FEF75EFA801BA8420AD82068006840064D
:1029A000F6D5202084F84100002001B0BDE8F08376
:1029B000206850E8030F216820F4D07041E803023A
:1029C000002A3ED0206850E8030F216820F4D07020
:1029D00041E80302AAB3206850E8030F216820F4FD
:1029E000D07041E8030262B3206850E8030F216809
:1029F00020F4D07041E80302002AD9D121E000BFC1
:102A0000206850E8050F216820F0010041E8050228
:102A1000002A3FF492AF206850E8050F216820F0AB
:102A2000010041E80502002A3FF487AF206850E822
:102A3000050F216820F0010041E80502002A3FF45B
:102A40007CAF206850E8050F216820F0010041E8C4
:102A50000502002AD4D170E770470000FEE70000AD
:102A60002DE9F04784B041F21800C4F20200016879
:102A700040F6000441F0200101600168C4F2010445
:102A800001F02001009100990168002241F0040149
:102A9000016001684FF0020A01F004010091009901
:102AA00001684FF0000841F0080101600068022150
:102AB00000F00800009000982046FEF7C3F904F5E6
:102AC00080652846062100224FF00609FEF7BAF974
:102AD000012701A86E4680E8800520463146CDF8E2
:102AE00000A0FEF799F828463146CDE90097CDE9D8
:102AF000028AFEF791F804B0BDE8F08770B59CB08B
:102B000042F6004540F6E800C4F201050021C2F299
:102B1000000041F61F4263231691CDE91411119173
:102B2000CDE90F11CDE90D11CDE90B11CDE9091159
:102B3000CDE90711CDE90511CDE90311CDE9011169
:102B4000C0E90052C0E90213C0E904118161FEF737
:102B500099FD002818BFFDF767FE4FF480501390D1
:102B600040F6E800C2F2000013A9FEF72BFE002891
:102B700018BFFDF759FE40F6E800C2F20000FEF76C
:102B8000F5FF002818BFFDF74FFE40F6E8000024CF
:102B9000C2F2000010A9CDE91044FEF735FD00286F
:102BA00018BFFDF741FE602009901E20CDE90A0400
:102BB00040F6E800C2F2000009A90022CDE90C4469
:102BC000CDE90E44FEF7CCFE002818BFFDF72CFE21
:102BD00040F6E800C2F2000009A90C22FEF7C0FE90
:102BE000002818BFFDF720FE40F6E8044FF400501F
:102BF000C2F200040026069001A920460596CDE900
:102C00000366CDE901660896FEF7D8FC002818BFD8
:102C1000FDF70AFE20681A96A84201D01CB070BDCC
:102C200041F21800C4F20200016841F004010160A1
:102C3000006818A900F00400179017984FF410606E
:102C40001890022019901B90A5F51050FDF7E4FF95
:102C50001CB070BD80B586B040F630100021C2F2C5
:102C600000004FF0804241F61F434FF0630C059186
:102C7000CDE90311CDE90011C0E90023C0E9021C30
:102C800001618161FEF7FEFC002818BFFDF7CCFD55
:102C90004FF48050029040F63010C2F2000002A9BA
:102CA000FEF790FD002818BFFDF7BEFD40F630107E
:102CB000C2F200006946FEF7A7FC002818BFFDF726
:102CC000B3FD06B080BD000080B540F6781043F635
:102CD0000001C2F20000C4F2010100234FF00C0C0D
:102CE0004FF4E13280E80E00C0E90333C0E905C3C8
:102CF000C361FFF731FB002808BF80BDBDE88040FD
:102D0000FDF792BD80B540F6C01044F20041C2F21A
:102D10000000C4F2000100234FF00C0C4FF4E1322C
:102D200080E80E00C0E90333C0E905C3C361FFF7C3
:102D300013FB002808BF80BDBDE88040FDF774BDCF
:102D400080B540F6082044F60001C2F20000C4F24B
:102D5000000100234FF00C0C4FF4E13280E80E002C
:102D6000C0E90333C0E905C3C361FFF7F5FA0028E2
:102D700008BF80BDBDE88040FDF756BDFEE70000FE
:102D8000FEE700004069704770B50446DDE9046065
:102D9000C4E90012C4E90306002020762046194643
:102DA00000F060F82068002808BF70BD4CF6CD45E3
:102DB000C3F64C6506686561F06AFDF77FFA29463F
:102DC000FDF7D4F9FDF798FA616808290AD00429BB
:102DD0000CD0002914BF06F1400106F1340108604F
:102DE00070BD00BF06F13C01086070BD06F13801FE
:102DF000086070BD70B50668002E08BF70BD04463F
:102E00000D4608460021FDF72FFA002818BF0025BF
:102E100028464FF07E51FDF735FA002818BF4FF0D5
:102E20007E5536686561F06AFDF748FA0146284626
:102E3000FDF79CF9FDF760FA616808290AD00429BA
:102E40000CD0002914BF06F1400106F134010860DE
:102E500070BD00BF06F13C01086070BD06F138018D
:102E6000086070BD2DE9F04F81B00446006800286D
:102E700068D00D46D4E90310A84288BF05468D42AC
:102E800028BF0D46FEF782F9216842F60042096824
:102E9000C4F20102914208BFFEF78CF9B0FBF5F1D4
:102EA0004BF2C532C9F2A212A1FB0212012101EBC1
:102EB0001231B0FBF1F04FF6FF7AB0FBF5F6110BD3
:102EC000564528BF5646207E514538BF4FEA123A34
:102ED000009030B1206820B16168FEF72FFF00201C
:102EE0002076D4E90089701ED8F80070D4F814B0A8
:102EF000C7F828A0F8623046FDF7E0F901465846C9
:102F0000FDF734F9FDF7F8F9B9F1080F0AD0B9F176
:102F1000040F0BD0B9F1000F14BF07F1400107F106
:102F2000340105E007F13C0102E000BF07F1380180
:102F3000009A0860A5602AB140464946FEF78EFE19
:102F40000120207601B0BDE8F08F000010B50446E6
:102F50000068002808BF10BD6168FEF77FFE0120F1
:102F6000207610BD10B504460068002808BF10BDCB
:102F70006168FEF7E3FE0020207610BD7047000078
:102F800070B54FF6FF7439B14AF20102012901F020
:102F9000010C05D1002164E04FF6FF7188B270BDCD
:102FA00021F0010E00234FF6FF7100BF10F8025B05
:102FB0000233694082EA510510F8014CCE0708BF80
:102FC0004D0882EA5501EE0708BF690882EA5105FB
:102FD000CE0708BF4D0882EA5501EE0708BF690811
:102FE00082EA5105CE0708BF4D0882EA5501EE0777
:102FF00008BF690882EA5105CE0708BF4D0882EA7A
:103000005501EE0708BF6908614082EA5104CD0707
:1030100008BF4C0882EA5401E50708BF610882EA4C
:103020005104CD0708BF4C0882EA5401E50708BFE8
:10303000610882EA5104CD0708BF4C0882EA5401B6
:10304000E50708BF610882EA5104CD0708BF4C08B4
:1030500082EA5401E50708BF61089CB274450C463A
:10306000A4D1BCF1000F29D00078604082EA500161
:10307000C30708BF410882EA5100CB0708BF4808D0
:1030800082EA5001C30708BF410882EA5100CB071A
:1030900008BF480882EA5001C30708BF410882EA16
:1030A0005100CB0708BF480882EA5003C10708BF98
:1030B000430882EA5301D80708BF590888B270BD97
:1030C0002DE9F043C0B002784FF6FF790A704278DC
:1030D0004A7082788A70C278CA7002790A7142791D
:1030E0004A7102780679C7788DF80220B0F801207D
:1030F0004579022EADF803208DF805708DF8066035
:103100008DF8075036D300220DF1020C8718BC79D8
:103110008D18AC710479BE79531C013CA3420CEBB1
:103120000204A6712ADAFB79EB71067997F807E0B9
:10313000931C013EB34284F807E025DA3B7A2B72F8
:10314000067997F808E0D31C013EB34284F808E002
:1031500080F2C6807B7A04326B727B7A0779637265
:10316000013FBA42D2DB02F1060C5FEA0C4211D1F8
:10317000BCE000BF4FF0060C0CE000BF02F1070CF2
:103180005FEA0C4206D1B1E002F1080C5FEA0C42A2
:1031900000F0AC801FFA8CF74AF20102012F0CF00C
:1031A000010E03D10DF10204002765E04FF6FE7316
:1031B0000CEA030800260DF102044FF6FF7700BF6A
:1031C00014F8025B02367D4082EA5507EB0714F8DB
:1031D000019C08BF6F0882EA5703FD0708BF7B0800
:1031E00082EA5305DF0708BF5D0882EA5503EF074F
:1031F00008BF6B0882EA5305DF0708BF5D0882EA53
:103200005503EF0708BF6B0882EA5305DF0708BFC5
:103210005D0882EA5503EF0708BF6B0883EA0903DC
:1032200082EA5305DF0708BF5D0882EA5503EF070E
:1032300008BF6B0882EA5305DF0708BF5D0882EA12
:103240005503EF0708BF6B0882EA5305DF0708BF85
:103250005D0882EA5503EF0708BF6B0882EA530551
:10326000DF0708BF5D08EB0782EA5507B3B208BF66
:103270006F084345B946A3D1BEF1000F02D1B9464C
:1032800036E000BF277889EA070382EA5307DE07A2
:1032900008BF5F0882EA5703FE0708BF7B0882EA7F
:1032A0005307DE0708BF5F0882EA5703FE0708BF1F
:1032B0007B0882EA5307DE0708BF5F0882EA5703EC
:1032C000FE0708BF7B0882EA5307DE0708BF5F08D6
:1032D00082EA5709FA0708BF4FEA570908E000BF1A
:1032E00002F1090C5FEA0C427FF454AF4FF0000C7E
:1032F0001FFA8CF7A0F8FE9001F807900CF101027C
:1033000090F8FF300CF1020092B280B28B5440B0C2
:10331000BDE8F083F0B5C1B0074600683C79CDF850
:1033200006007879022C8DF80A408DF80B0009D33D
:103330000DF10600621E0630B91DFCF7F3FE611D9B
:1033400001E000BF062101F0010C21F001030DF1A5
:1033500006014AF20100023900224FF6FF7400BF55
:1033600011F8025F0232654080EA5504EE0708BF9B
:103370006C0880EA5406E50708BF660880EA56052F
:10338000F40708BF750880EA5506EC0708BF6E0809
:1033900080EA5605F40708BF750880EA5506EC0771
:1033A00008BF6E0880EA5605F40708BF7508EC07E9
:1033B00080EA55064C7808BF6E08664080EA5605DC
:1033C000F40708BF750880EA5506EC0708BF6E08C9
:1033D00080EA5605F40708BF750880EA5506EC0731
:1033E00008BF6E0880EA5605F40708BF750880EA32
:1033F0005506EC0708BF6E0880EA5605F40708BFBB
:103400007508EE0780EA550496B208BF6C089E4224
:10341000A6D1BCF1000F29D08978614080EA510221
:10342000CB0708BF4A0880EA5201D30708BF5108FA
:1034300080EA5102CB0708BF4A0880EA5201D3074D
:1034400008BF510880EA5102CB0708BF4A0880EA4A
:103450005201D30708BF510880EA5102CB0708BFC9
:103460004A0880EA5204D00708BF5408B7F8FE00A3
:10347000001BB0FA80F0400941B0F0BD80B59C4619
:10348000034602984FF0000EC3E90012A3F808C0EB
:10349000987283F80BE0A3F80CE1A3F80FE1C3E9FD
:1034A00085EE104661460022C3F81CE2BDE880406C
:1034B000FDF7C8BC10B5044690F80F01002808BFFE
:1034C00010BDA07AA17B81421AD1607C40F26801D4
:1034D000C2F2000151F820201AB104F10C0120467B
:1034E000904700232068E372A4F80C3104F587713B
:1034F0000122A4F80F31BDE81040FFF739B900BF31
:10350000002084F80F0110BD40F26800C2F20000F4
:1035100040F8212070470000B0B5C2B00A4604460A
:1035200001A91046FFF7CCFD6268218905461046C7
:103530000122FDF787FC002000900098312817DC5D
:103540000098013000900098312811DC009801307B
:103550000090009831280BDC009801300090009812
:10356000312805DC00980130009000983228E7DB14
:10357000206801A92A464FF47A73FFF731F905460E
:103580000520FDF745FA606821890022FDF75AFC05
:1035900015B1284642B0B0BDD4F818020130C4F8C5
:1035A0001802284642B0B0BD2DE9F0410446069805
:1035B0001746A27A84F81401002004F217161D465B
:1035C0004AF6552384F8150184F816113046FA217D
:1035D00004F21118A4F8113184F81321FCF7BBFD93
:1035E000002F18BF002D05D120464146BDE8F0410F
:1035F000FFF792BF304639462A46FCF793FD681C18
:1036000084F8150120464146BDE8F041FFF784BF2C
:103610004FF0000C034680F80BC0A0F80FC1006803
:1036200003F587710122A3F80CC1FFF7A1B80000D0
:103630002DE9F04182B00646174632894068DDF830
:1036400020800D46114601221C46FDF7FBFB0020A1
:1036500001900198312817DC019801300190019800
:10366000312811DC019801300190019831280BDCE0
:103670000198013001900198312805DC0198013052
:10368000019001983228E7DB306829463A464FF02E
:10369000FF33FFF7A5F80A20FDF7BAF97068318902
:1036A0000022FDF7CFFB0A20FDF7B2F93068214672
:1036B00042464FF47A73FEF783FF002002B0BDE864
:1036C000F081000010B50446C07A092800F26B8032
:1036D000DFE800F0066910181E243036484E00BF9F
:1036E00094F80E01552804BF45F20250A4F80B00CF
:1036F0005BE000BF94F80E01AA2867D1AA2060738E
:10370000032051E094F80E01A07304204CE000BFA8
:1037100094F80E01E073052046E000BF94F80E0116
:1037200000212074A4F80C11C8B1F8284ED8062046
:103730003AE000BF94F80E016074072034E000BF47
:10374000B4F80C1194F80E214B1C2144207CA4F8F1
:103750000C318A74B4F80C110138884225DC082039
:1037600022E000BF94F80E01A4F80A0109201BE032
:1037700094F80E11B4F80A2104F10C0042EA012178
:10378000A4F80A11FFF7C6FD00284FF0010007BF9B
:1037900084F8100104F5077084F80F0104F5057032
:1037A0000168013101600020E07294F80F010028E7
:1037B00018BF10BD94F8100100B110BD206804F5C9
:1037C00087710122BDE81040FEF7D2BFD4F81C1269
:1037D0000020E072481CC4F81C02E6E710B540F275
:1037E0005542C0F6000201210446FFF78DFE40F26B
:1037F000B932C0F6000220460221FFF785FE40F2F2
:10380000BD42C0F6000220460321FFF77DFE40F2D4
:103810001552C0F6000220460421BDE81040FFF713
:1038200073BE000070470000FDF718BB7047000032
:10383000406A0021C185C184FEF7DCBA81B090F8EE
:103840004210222921D183680246B3F5805F09D155
:1038500052F8281F52F8183C002B63D003685B68AD
:103860000AE000BF52F8281F13B90369002BF5D0F6
:1038700003685B6803F07F030B701168013111600E
:10388000C18D01390A04C18502D001B0704700BF63
:103890000168CA6822F02002CA60CA6822F48072F5
:1038A000CA604A6922F001024A61202180F8421070
:1038B00000214163026B012A3CD10163016851E898
:1038C000031F026821F0100142E80313DBB1016815
:1038D00051E8031F026821F0100142E8031393B17D
:1038E000016851E8031F026821F0100142E8031348
:1038F0004BB1016851E8031F026821F0100142E852
:103900000313002BDAD101680A68D20606D500221B
:1039100000920A680092496800910099818D01B077
:10392000FEF766BA026852686FF35F2221F8022B35
:103930008162A5E701B0FEF745BF000040F67810B0
:10394000C2F20000FEF758BA40F6C010C2F2000002
:10395000FEF752BAFEE7000080687047027101224C
:103960000160002102754FF47A72C0E90211026110
:103970007047000070B586B00446FDF769FAE1684B
:103980000546401A40F26841C2F20001897964227A
:10399000514388422BD3206840B3217901208DF810
:1039A0001010032104AE2075CDF811108DF815000C
:1039B00030460621FFF7E4FA2168ADF816004FF013
:1039C000070C0DF10903084631460822CDF800C066
:1039D000FFF72EFEBDF80C0000BA000CFCF76EFCE1
:1039E0000021C4F2C821FCF7F3FBA060E56006B03B
:1039F00070BD000092B0FDF73FFA00240120CDE930
:103A00000D44CDE90B4408900C904FF4E0104FF4B6
:103A100080310225119008A8CDE90914CDE90F5194
:103A2000FDF7DCFB20B1EFF3108072B6FEE700BFBC
:103A30000F20CDE903054FF48060CDE9060403A80B
:103A400002210594FDF7C2FA20B1EFF3108072B69F
:103A5000FEE700BF40F60048C4F20108FFF700F897
:103A6000FFF7F8F8FFF730F9FFF76AF9FFF74AF9BF
:103A7000FFF744F8FCF778FD40F21007C2F20007A8
:103A800040F6E80607F12005C2F2000642F2107483
:103A90004FF0010B2846314600224FF47A73CDE9EE
:103AA00000B44FF00009FFF76FF92846FFF74EFA10
:103AB00007F13C05284631460C224FF47A73CDF8C5
:103AC00000B00194FFF760F92846FFF73FFA40F293
:103AD000684AC2F2000A40F2A8459AF80460C2F2AD
:103AE000000540F67811C2F2000128464246022342
:103AF0000096FFF7C3FC40F2C864C2F2000440F62F
:103B0000C011C2F20001204642460423CDF800B0A5
:103B1000FFF7B4FC07F10806304621460122FFF703
:103B20001DFF2846FFF75AFE2846FFF771FDA8F54E
:103B3000806400BF0120FCF76BFF95F80F0128B1EE
:103B40002846FFF7B7FC2846FFF762FD95F81001FD
:103B500020B1284685F81091FFF75AFDFDF778F956
:103B600039687860411AB1F5FA7F05D920460221FB
:103B7000FDF760F9786838609AF805000028D9D018
:103B80003046FFF7F7FED5E702E008C8121F08C16C
:103B9000002AFAD170477047002001E001C1121FCE
:103BA000002AFBD170470000000000000000010265
:103BB00003040607080900000000010203040102D3
:103BC00002030405060708090A0B0C0D0E0F10105E
:103BD000F03B00080000002010000000883B0008B7
:103BE000003C000810000020680E0000983B000810
:103BF00001000000100000000024F400000000009C
:04000005080000ED02
:00000001FF
